{
  "_format": "hh-sol-artifact-1",
  "contractName": "TipJar",
  "sourceName": "contracts/TipJar.sol",
  "abi": [
    {
      "inputs": [],
      "name": "getTips",
      "outputs": [
        {
          "components": [
            {
              "internalType": "address",
              "name": "from",
              "type": "address"
            },
            {
              "internalType": "uint256",
              "name": "amount",
              "type": "uint256"
            }
          ],
          "internalType": "struct TipJar.Tip[]",
          "name": "",
          "type": "tuple[]"
        }
      ],
      "stateMutability": "view",
      "type": "function"
    },
    {
      "inputs": [],
      "name": "sendTip",
      "outputs": [],
      "stateMutability": "payable",
      "type": "function"
    },
    {
      "inputs": [
        {
          "internalType": "uint256",
          "name": "",
          "type": "uint256"
        }
      ],
      "name": "tips",
      "outputs": [
        {
          "internalType": "address",
          "name": "from",
          "type": "address"
        },
        {
          "internalType": "uint256",
          "name": "amount",
          "type": "uint256"
        }
      ],
      "stateMutability": "view",
      "type": "function"
    },
    {
      "inputs": [
        {
          "internalType": "address payable",
          "name": "_to",
          "type": "address"
        }
      ],
      "name": "withdraw",
      "outputs": [],
      "stateMutability": "nonpayable",
      "type": "function"
    }
  ],
  "bytecode": "0x608060405234801561001057600080fd5b50610648806100206000396000f3fe60806040526004361061003f5760003560e01c8063502c40651461004457806351cff8d91461004e57806388e4a07314610077578063a5c68c59146100a2575b600080fd5b61004c6100e0565b005b34801561005a57600080fd5b506100756004803603810190610070919061038e565b6101ce565b005b34801561008357600080fd5b5061008c610218565b60405161009991906104d3565b60405180910390f35b3480156100ae57600080fd5b506100c960048036038101906100c49190610521565b6102d7565b6040516100d792919061056c565b60405180910390f35b60003411610123576040517f08c379a000000000000000000000000000000000000000000000000000000000815260040161011a906105f2565b60405180910390fd5b600060405180604001604052803373ffffffffffffffffffffffffffffffffffffffff16815260200134815250908060018154018082558091505060019003906000526020600020906002020160009091909190915060008201518160000160006101000a81548173ffffffffffffffffffffffffffffffffffffffff021916908373ffffffffffffffffffffffffffffffffffffffff160217905550602082015181600101555050565b8073ffffffffffffffffffffffffffffffffffffffff166108fc479081150290604051600060405180830381858888f19350505050158015610214573d6000803e3d6000fd5b5050565b60606000805480602002602001604051908101604052809291908181526020016000905b828210156102ce57838290600052602060002090600202016040518060400160405290816000820160009054906101000a900473ffffffffffffffffffffffffffffffffffffffff1673ffffffffffffffffffffffffffffffffffffffff1673ffffffffffffffffffffffffffffffffffffffff1681526020016001820154815250508152602001906001019061023c565b50505050905090565b600081815481106102e757600080fd5b90600052602060002090600202016000915090508060000160009054906101000a900473ffffffffffffffffffffffffffffffffffffffff16908060010154905082565b600080fd5b600073ffffffffffffffffffffffffffffffffffffffff82169050919050565b600061035b82610330565b9050919050565b61036b81610350565b811461037657600080fd5b50565b60008135905061038881610362565b92915050565b6000602082840312156103a4576103a361032b565b5b60006103b284828501610379565b91505092915050565b600081519050919050565b600082825260208201905092915050565b6000819050602082019050919050565b60006103f282610330565b9050919050565b610402816103e7565b82525050565b6000819050919050565b61041b81610408565b82525050565b60408201600082015161043760008501826103f9565b50602082015161044a6020850182610412565b50505050565b600061045c8383610421565b60408301905092915050565b6000602082019050919050565b6000610480826103bb565b61048a81856103c6565b9350610495836103d7565b8060005b838110156104c65781516104ad8882610450565b97506104b883610468565b925050600181019050610499565b5085935050505092915050565b600060208201905081810360008301526104ed8184610475565b905092915050565b6104fe81610408565b811461050957600080fd5b50565b60008135905061051b816104f5565b92915050565b6000602082840312156105375761053661032b565b5b60006105458482850161050c565b91505092915050565b610557816103e7565b82525050565b61056681610408565b82525050565b6000604082019050610581600083018561054e565b61058e602083018461055d565b9392505050565b600082825260208201905092915050565b7f4e6f204554482073656e74000000000000000000000000000000000000000000600082015250565b60006105dc600b83610595565b91506105e7826105a6565b602082019050919050565b6000602082019050818103600083015261060b816105cf565b905091905056fea26469706673582212207c1caef5219f4101ece4256753c19a15198175e046666399ac1e9ab0692dd7f564736f6c63430008180033",
  "linkReferences": {},
  "deployedLinkReferences": {}
}